{
  "contractName": "TradeFinance",
  "abi": [
    {
      "constant": true,
      "inputs": [
        {
          "name": "",
          "type": "uint256"
        }
      ],
      "name": "productstatus",
      "outputs": [
        {
          "name": "invoiceId",
          "type": "uint256"
        },
        {
          "name": "productName",
          "type": "string"
        },
        {
          "name": "quantity",
          "type": "uint256"
        },
        {
          "name": "productPrice",
          "type": "uint256"
        },
        {
          "name": "IsitSeller",
          "type": "bool"
        },
        {
          "name": "status",
          "type": "string"
        },
        {
          "name": "advaceAmount",
          "type": "uint256"
        },
        {
          "name": "IsitFI",
          "type": "bool"
        },
        {
          "name": "IsitApproved",
          "type": "bool"
        },
        {
          "name": "advaceAmountReceived",
          "type": "bool"
        },
        {
          "name": "ProductTransfered",
          "type": "bool"
        },
        {
          "name": "Amount",
          "type": "uint256"
        },
        {
          "name": "RemainingBalance",
          "type": "uint256"
        }
      ],
      "payable": false,
      "stateMutability": "view",
      "type": "function"
    },
    {
      "constant": true,
      "inputs": [
        {
          "name": "",
          "type": "uint256"
        }
      ],
      "name": "products",
      "outputs": [
        {
          "name": "productId",
          "type": "uint256"
        },
        {
          "name": "productName",
          "type": "string"
        },
        {
          "name": "quantity",
          "type": "uint256"
        },
        {
          "name": "productPrice",
          "type": "uint256"
        }
      ],
      "payable": false,
      "stateMutability": "view",
      "type": "function"
    },
    {
      "constant": true,
      "inputs": [
        {
          "name": "",
          "type": "uint256"
        }
      ],
      "name": "sellers",
      "outputs": [
        {
          "name": "sellerId",
          "type": "uint256"
        },
        {
          "name": "sellerName",
          "type": "string"
        },
        {
          "name": "country",
          "type": "string"
        },
        {
          "name": "sellerAddress",
          "type": "address"
        },
        {
          "name": "sellerBalance",
          "type": "uint256"
        }
      ],
      "payable": false,
      "stateMutability": "view",
      "type": "function"
    },
    {
      "constant": true,
      "inputs": [
        {
          "name": "",
          "type": "uint256"
        }
      ],
      "name": "fis",
      "outputs": [
        {
          "name": "FIId",
          "type": "uint256"
        },
        {
          "name": "FIName",
          "type": "string"
        },
        {
          "name": "FIAddress",
          "type": "address"
        },
        {
          "name": "FIBalance",
          "type": "uint256"
        }
      ],
      "payable": false,
      "stateMutability": "view",
      "type": "function"
    },
    {
      "constant": true,
      "inputs": [
        {
          "name": "",
          "type": "uint256"
        }
      ],
      "name": "buyers",
      "outputs": [
        {
          "name": "buyerId",
          "type": "uint256"
        },
        {
          "name": "buyerName",
          "type": "string"
        },
        {
          "name": "country",
          "type": "string"
        },
        {
          "name": "buyerAddress",
          "type": "address"
        },
        {
          "name": "buyerBalance",
          "type": "uint256"
        }
      ],
      "payable": false,
      "stateMutability": "view",
      "type": "function"
    },
    {
      "inputs": [
        {
          "name": "_buyer",
          "type": "address"
        },
        {
          "name": "_seller",
          "type": "address"
        },
        {
          "name": "_Financialinstitution",
          "type": "address"
        }
      ],
      "payable": false,
      "stateMutability": "nonpayable",
      "type": "constructor"
    },
    {
      "constant": false,
      "inputs": [
        {
          "name": "buyerId",
          "type": "uint256"
        },
        {
          "name": "buyerName",
          "type": "string"
        },
        {
          "name": "country",
          "type": "string"
        },
        {
          "name": "buyerAddress",
          "type": "address"
        },
        {
          "name": "buyerBalance",
          "type": "uint256"
        }
      ],
      "name": "setBuyer",
      "outputs": [],
      "payable": false,
      "stateMutability": "nonpayable",
      "type": "function"
    },
    {
      "constant": false,
      "inputs": [
        {
          "name": "sellerId",
          "type": "uint256"
        },
        {
          "name": "sellerName",
          "type": "string"
        },
        {
          "name": "country",
          "type": "string"
        },
        {
          "name": "sellerAddress",
          "type": "address"
        },
        {
          "name": "sellerBalance",
          "type": "uint256"
        }
      ],
      "name": "setSeller",
      "outputs": [],
      "payable": false,
      "stateMutability": "nonpayable",
      "type": "function"
    },
    {
      "constant": false,
      "inputs": [
        {
          "name": "FIId",
          "type": "uint256"
        },
        {
          "name": "FIName",
          "type": "string"
        },
        {
          "name": "FIAddress",
          "type": "address"
        },
        {
          "name": "FIBalance",
          "type": "uint256"
        }
      ],
      "name": "setFinancialInstitution",
      "outputs": [],
      "payable": false,
      "stateMutability": "nonpayable",
      "type": "function"
    },
    {
      "constant": false,
      "inputs": [
        {
          "name": "productId",
          "type": "uint256"
        },
        {
          "name": "productName",
          "type": "string"
        },
        {
          "name": "quantity",
          "type": "uint256"
        },
        {
          "name": "productPrice",
          "type": "uint256"
        }
      ],
      "name": "sendRequestByBuyer",
      "outputs": [],
      "payable": false,
      "stateMutability": "nonpayable",
      "type": "function"
    },
    {
      "constant": false,
      "inputs": [
        {
          "name": "invoiceId",
          "type": "uint256"
        },
        {
          "name": "productName",
          "type": "string"
        },
        {
          "name": "quantity",
          "type": "uint256"
        },
        {
          "name": "productPrice",
          "type": "uint256"
        },
        {
          "name": "advaceAmount",
          "type": "uint256"
        }
      ],
      "name": "requestAcceptedBySeller",
      "outputs": [],
      "payable": false,
      "stateMutability": "nonpayable",
      "type": "function"
    },
    {
      "constant": false,
      "inputs": [
        {
          "name": "invoiceId",
          "type": "uint256"
        }
      ],
      "name": "requestAcceptedByFI",
      "outputs": [],
      "payable": false,
      "stateMutability": "nonpayable",
      "type": "function"
    },
    {
      "constant": false,
      "inputs": [
        {
          "name": "invoiceId",
          "type": "uint256"
        },
        {
          "name": "FIId",
          "type": "uint256"
        },
        {
          "name": "sellerId",
          "type": "uint256"
        },
        {
          "name": "advaceAmount",
          "type": "uint256"
        }
      ],
      "name": "sendAdvanceAmountToSellerByFI",
      "outputs": [],
      "payable": true,
      "stateMutability": "payable",
      "type": "function"
    },
    {
      "constant": false,
      "inputs": [
        {
          "name": "invoiceId",
          "type": "uint256"
        }
      ],
      "name": "productTransferedBySeller",
      "outputs": [],
      "payable": false,
      "stateMutability": "nonpayable",
      "type": "function"
    },
    {
      "constant": false,
      "inputs": [
        {
          "name": "invoiceId",
          "type": "uint256"
        },
        {
          "name": "FIId",
          "type": "uint256"
        },
        {
          "name": "buyerId",
          "type": "uint256"
        },
        {
          "name": "Amount",
          "type": "uint256"
        }
      ],
      "name": "sendAmountToFIByBuyer",
      "outputs": [],
      "payable": true,
      "stateMutability": "payable",
      "type": "function"
    },
    {
      "constant": false,
      "inputs": [
        {
          "name": "invoiceId",
          "type": "uint256"
        },
        {
          "name": "FIId",
          "type": "uint256"
        },
        {
          "name": "sellerId",
          "type": "uint256"
        },
        {
          "name": "RemainingBalance",
          "type": "uint256"
        }
      ],
      "name": "sendRemainingAmountToSellerByFI",
      "outputs": [],
      "payable": true,
      "stateMutability": "payable",
      "type": "function"
    }
  ],
  "bytecode": "0x608060405234801561001057600080fd5b50604051606080611e28833981018060405281019080805190602001909291908051906020019092919080519060200190929190505050600073ffffffffffffffffffffffffffffffffffffffff168373ffffffffffffffffffffffffffffffffffffffff161415151561008357600080fd5b600073ffffffffffffffffffffffffffffffffffffffff168273ffffffffffffffffffffffffffffffffffffffff16141515156100bf57600080fd5b600073ffffffffffffffffffffffffffffffffffffffff168173ffffffffffffffffffffffffffffffffffffffff16141515156100fb57600080fd5b82600560006101000a81548173ffffffffffffffffffffffffffffffffffffffff021916908373ffffffffffffffffffffffffffffffffffffffff16021790555081600660006101000a81548173ffffffffffffffffffffffffffffffffffffffff021916908373ffffffffffffffffffffffffffffffffffffffff16021790555080600760006101000a81548173ffffffffffffffffffffffffffffffffffffffff021916908373ffffffffffffffffffffffffffffffffffffffff160217905550505050611c58806101d06000396000f3006080604052600436106100db576000357c0100000000000000000000000000000000000000000000000000000000900463ffffffff1680630c94fa67146100e05780630e6b40951461025357806311330033146102915780634eb707a6146102be5780635541b56d146103a157806363db4ad3146103df57806365575c9b1461047057806374c23217146105535780637acc0b2014610580578063a5d915d31461063b578063ae8b8b9b146106c2578063c1f0b84014610700578063cee26ed51461079d578063eb771279146108f0578063f2aa8218146109d7575b600080fd5b3480156100ec57600080fd5b5061010b60048036038101908080359060200190929190505050610b2a565b604051808e8152602001806020018d81526020018c81526020018b151515158152602001806020018a81526020018915151515815260200188151515158152602001871515151581526020018615151515815260200185815260200184815260200183810383528f818151815260200191508051906020019080838360005b838110156101a557808201518184015260208101905061018a565b50505050905090810190601f1680156101d25780820380516001836020036101000a031916815260200191505b5083810382528b818151815260200191508051906020019080838360005b8381101561020b5780820151818401526020810190506101f0565b50505050905090810190601f1680156102385780820380516001836020036101000a031916815260200191505b509f5050505050505050505050505050505060405180910390f35b61028f60048036038101908080359060200190929190803590602001909291908035906020019092919080359060200190929190505050610d01565b005b34801561029d57600080fd5b506102bc60048036038101908080359060200190929190505050610dfa565b005b3480156102ca57600080fd5b5061039f60048036038101908080359060200190929190803590602001908201803590602001908080601f0160208091040260200160405190810160405280939291908181526020018383808284378201915050505050509192919290803590602001908201803590602001908080601f0160208091040260200160405190810160405280939291908181526020018383808284378201915050505050509192919290803573ffffffffffffffffffffffffffffffffffffffff16906020019092919080359060200190929190505050610f1f565b005b6103dd60048036038101908080359060200190929190803590602001909291908035906020019092919080359060200190929190505050611021565b005b3480156103eb57600080fd5b5061046e60048036038101908080359060200190929190803590602001908201803590602001908080601f016020809104026020016040519081016040528093929190818152602001838380828437820191505050505050919291929080359060200190929190803590602001909291908035906020019092919050505061113f565b005b34801561047c57600080fd5b5061055160048036038101908080359060200190929190803590602001908201803590602001908080601f0160208091040260200160405190810160405280939291908181526020018383808284378201915050505050509192919290803590602001908201803590602001908080601f0160208091040260200160405190810160405280939291908181526020018383808284378201915050505050509192919290803573ffffffffffffffffffffffffffffffffffffffff16906020019092919080359060200190929190505050611282565b005b34801561055f57600080fd5b5061057e60048036038101908080359060200190929190505050611383565b005b34801561058c57600080fd5b506105ab6004803603810190808035906020019092919050505061143b565b6040518085815260200180602001848152602001838152602001828103825285818151815260200191508051906020019080838360005b838110156105fd5780820151818401526020810190506105e2565b50505050905090810190601f16801561062a5780820380516001836020036101000a031916815260200191505b509550505050505060405180910390f35b34801561064757600080fd5b506106c060048036038101908080359060200190929190803590602001908201803590602001908080601f01602080910402602001604051908101604052809392919081815260200183838082843782019150505050505091929192908035906020019092919080359060200190929190505050611503565b005b6106fe600480360381019080803590602001909291908035906020019092919080359060200190929190803590602001909291905050506115b1565b005b34801561070c57600080fd5b5061079b60048036038101908080359060200190929190803590602001908201803590602001908080601f0160208091040260200160405190810160405280939291908181526020018383808284378201915050505050509192919290803573ffffffffffffffffffffffffffffffffffffffff169060200190929190803590602001909291905050506116ab565b005b3480156107a957600080fd5b506107c860048036038101908080359060200190929190505050611793565b6040518086815260200180602001806020018573ffffffffffffffffffffffffffffffffffffffff1673ffffffffffffffffffffffffffffffffffffffff168152602001848152602001838103835287818151815260200191508051906020019080838360005b8381101561084a57808201518184015260208101905061082f565b50505050905090810190601f1680156108775780820380516001836020036101000a031916815260200191505b50838103825286818151815260200191508051906020019080838360005b838110156108b0578082015181840152602081019050610895565b50505050905090810190601f1680156108dd5780820380516001836020036101000a031916815260200191505b5097505050505050505060405180910390f35b3480156108fc57600080fd5b5061091b60048036038101908080359060200190929190505050611919565b60405180858152602001806020018473ffffffffffffffffffffffffffffffffffffffff1673ffffffffffffffffffffffffffffffffffffffff168152602001838152602001828103825285818151815260200191508051906020019080838360005b8381101561099957808201518184015260208101905061097e565b50505050905090810190601f1680156109c65780820380516001836020036101000a031916815260200191505b509550505050505060405180910390f35b3480156109e357600080fd5b50610a0260048036038101908080359060200190929190505050611a01565b6040518086815260200180602001806020018573ffffffffffffffffffffffffffffffffffffffff1673ffffffffffffffffffffffffffffffffffffffff168152602001848152602001838103835287818151815260200191508051906020019080838360005b83811015610a84578082015181840152602081019050610a69565b50505050905090810190601f168015610ab15780820380516001836020036101000a031916815260200191505b50838103825286818151815260200191508051906020019080838360005b83811015610aea578082015181840152602081019050610acf565b50505050905090810190601f168015610b175780820380516001836020036101000a031916815260200191505b5097505050505050505060405180910390f35b6004602052806000526040600020600091509050806000015490806001018054600181600116156101000203166002900480601f016020809104026020016040519081016040528092919081815260200182805460018160011615610100020316600290048015610bdc5780601f10610bb157610100808354040283529160200191610bdc565b820191906000526020600020905b815481529060010190602001808311610bbf57829003601f168201915b5050505050908060020154908060030154908060040160009054906101000a900460ff1690806005018054600181600116156101000203166002900480601f016020809104026020016040519081016040528092919081815260200182805460018160011615610100020316600290048015610c995780601f10610c6e57610100808354040283529160200191610c99565b820191906000526020600020905b815481529060010190602001808311610c7c57829003601f168201915b5050505050908060060154908060070160009054906101000a900460ff16908060070160019054906101000a900460ff16908060070160029054906101000a900460ff16908060070160039054906101000a900460ff1690806008015490806009015490508d565b6000806000600560009054906101000a900473ffffffffffffffffffffffffffffffffffffffff1673ffffffffffffffffffffffffffffffffffffffff163373ffffffffffffffffffffffffffffffffffffffff16141515610d6257600080fd5b600460008881526020019081526020016000209250838360080181905550600115158360070160039054906101000a900460ff161515141515610da457600080fd5b600080868152602001908152602001600020915060026000878152602001908152602001600020905034816003016000828254019250508190555034826004016000828254039250508190555050505050505050565b6000600760009054906101000a900473ffffffffffffffffffffffffffffffffffffffff1673ffffffffffffffffffffffffffffffffffffffff163373ffffffffffffffffffffffffffffffffffffffff16141515610e5857600080fd5b60046000838152602001908152602001600020905081816000018190555060018160040160006101000a81548160ff0219169083151502179055506040805190810160405280600681526020017f4163636570740000000000000000000000000000000000000000000000000000815250816005019080519060200190610ee0929190611b87565b5060018160070160006101000a81548160ff02191690831515021790555060018160070160016101000a81548160ff0219169083151502179055505050565b6000600660009054906101000a900473ffffffffffffffffffffffffffffffffffffffff1673ffffffffffffffffffffffffffffffffffffffff163373ffffffffffffffffffffffffffffffffffffffff16141515610f7d57600080fd5b60016000878152602001908152602001600020905085816000018190555084816001019080519060200190610fb3929190611b87565b5083816002019080519060200190610fcc929190611b87565b50828160030160006101000a81548173ffffffffffffffffffffffffffffffffffffffff021916908373ffffffffffffffffffffffffffffffffffffffff160217905550818160040181905550505050505050565b6000806000600760009054906101000a900473ffffffffffffffffffffffffffffffffffffffff1673ffffffffffffffffffffffffffffffffffffffff163373ffffffffffffffffffffffffffffffffffffffff1614151561108257600080fd5b600160008681526020019081526020016000209250600260008781526020019081526020016000209150600460008881526020019081526020016000209050600115158160070160009054906101000a900460ff1615151415156110e557600080fd5b600115158160070160019054906101000a900460ff16151514151561110957600080fd5b83816006018190555034836004016000828254019250508190555034826003016000828254039250508190555050505050505050565b6000600660009054906101000a900473ffffffffffffffffffffffffffffffffffffffff1673ffffffffffffffffffffffffffffffffffffffff163373ffffffffffffffffffffffffffffffffffffffff1614151561119d57600080fd5b600460008781526020019081526020016000209050858160000181905550848160010190805190602001906111d3929190611b87565b5083816002018190555082816003018190555081816006018190555060018160040160006101000a81548160ff0219169083151502179055506040805190810160405280600681526020017f4163636570740000000000000000000000000000000000000000000000000000815250816005019080519060200190611259929190611b87565b508060070160009054906101000a9050508060070160019054906101000a905050505050505050565b6000600560009054906101000a900473ffffffffffffffffffffffffffffffffffffffff1673ffffffffffffffffffffffffffffffffffffffff163373ffffffffffffffffffffffffffffffffffffffff161415156112e057600080fd5b600080878152602001908152602001600020905085816000018190555084816001019080519060200190611315929190611b87565b508381600201908051906020019061132e929190611b87565b50828160030160006101000a81548173ffffffffffffffffffffffffffffffffffffffff021916908373ffffffffffffffffffffffffffffffffffffffff160217905550818160040181905550505050505050565b6000600660009054906101000a900473ffffffffffffffffffffffffffffffffffffffff1673ffffffffffffffffffffffffffffffffffffffff163373ffffffffffffffffffffffffffffffffffffffff161415156113e157600080fd5b600460008381526020019081526020016000209050600115158160070160029054906101000a900460ff16151514151561141a57600080fd5b60018160070160036101000a81548160ff0219169083151502179055505050565b6003602052806000526040600020600091509050806000015490806001018054600181600116156101000203166002900480601f0160208091040260200160405190810160405280929190818152602001828054600181600116156101000203166002900480156114ed5780601f106114c2576101008083540402835291602001916114ed565b820191906000526020600020905b8154815290600101906020018083116114d057829003601f168201915b5050505050908060020154908060030154905084565b6000600560009054906101000a900473ffffffffffffffffffffffffffffffffffffffff1673ffffffffffffffffffffffffffffffffffffffff163373ffffffffffffffffffffffffffffffffffffffff1614151561156157600080fd5b60036000868152602001908152602001600020905084816000018190555083816001019080519060200190611597929190611b87565b508281600201819055508181600301819055505050505050565b6000806000600760009054906101000a900473ffffffffffffffffffffffffffffffffffffffff1673ffffffffffffffffffffffffffffffffffffffff163373ffffffffffffffffffffffffffffffffffffffff1614151561161257600080fd5b600460008881526020019081526020016000209250838360090181905550600115158360070160039054906101000a900460ff16151514151561165457600080fd5b60016000868152602001908152602001600020915060026000878152602001908152602001600020905034826004016000828254019250508190555034816003016000828254039250508190555050505050505050565b6000600760009054906101000a900473ffffffffffffffffffffffffffffffffffffffff1673ffffffffffffffffffffffffffffffffffffffff163373ffffffffffffffffffffffffffffffffffffffff1614151561170957600080fd5b6002600086815260200190815260200160002090508481600001819055508381600101908051906020019061173f929190611b87565b50828160020160006101000a81548173ffffffffffffffffffffffffffffffffffffffff021916908373ffffffffffffffffffffffffffffffffffffffff1602179055508181600301819055505050505050565b6001602052806000526040600020600091509050806000015490806001018054600181600116156101000203166002900480601f0160208091040260200160405190810160405280929190818152602001828054600181600116156101000203166002900480156118455780601f1061181a57610100808354040283529160200191611845565b820191906000526020600020905b81548152906001019060200180831161182857829003601f168201915b505050505090806002018054600181600116156101000203166002900480601f0160208091040260200160405190810160405280929190818152602001828054600181600116156101000203166002900480156118e35780601f106118b8576101008083540402835291602001916118e3565b820191906000526020600020905b8154815290600101906020018083116118c657829003601f168201915b5050505050908060030160009054906101000a900473ffffffffffffffffffffffffffffffffffffffff16908060040154905085565b6002602052806000526040600020600091509050806000015490806001018054600181600116156101000203166002900480601f0160208091040260200160405190810160405280929190818152602001828054600181600116156101000203166002900480156119cb5780601f106119a0576101008083540402835291602001916119cb565b820191906000526020600020905b8154815290600101906020018083116119ae57829003601f168201915b5050505050908060020160009054906101000a900473ffffffffffffffffffffffffffffffffffffffff16908060030154905084565b6000602052806000526040600020600091509050806000015490806001018054600181600116156101000203166002900480601f016020809104026020016040519081016040528092919081815260200182805460018160011615610100020316600290048015611ab35780601f10611a8857610100808354040283529160200191611ab3565b820191906000526020600020905b815481529060010190602001808311611a9657829003601f168201915b505050505090806002018054600181600116156101000203166002900480601f016020809104026020016040519081016040528092919081815260200182805460018160011615610100020316600290048015611b515780601f10611b2657610100808354040283529160200191611b51565b820191906000526020600020905b815481529060010190602001808311611b3457829003601f168201915b5050505050908060030160009054906101000a900473ffffffffffffffffffffffffffffffffffffffff16908060040154905085565b828054600181600116156101000203166002900490600052602060002090601f016020900481019282601f10611bc857805160ff1916838001178555611bf6565b82800160010185558215611bf6579182015b82811115611bf5578251825591602001919060010190611bda565b5b509050611c039190611c07565b5090565b611c2991905b80821115611c25576000816000905550600101611c0d565b5090565b905600a165627a7a723058203f10408946f54fe288e1b278f1e913319169b4e1d1112ed172b26ad58c4066390029",
  "source": "pragma solidity 0.4.25;\n\ncontract TradeFinance{\n    \n    struct Buyer{\n        uint buyerId;\n        string buyerName;\n        string country;\n        address buyerAddress;\n        uint buyerBalance;\n    }\n    \n    struct Seller{\n        uint sellerId;\n        string sellerName;\n        string country;\n        address sellerAddress;\n        uint sellerBalance;\n    }\n    \n    struct FinancialInstitution{\n        uint FIId;\n        string FIName;\n        address FIAddress;\n        uint FIBalance;\n    }\n    \n    struct Product{\n        uint productId;\n        string productName;\n        uint quantity;\n        uint productPrice;\n    }\n    \n    struct ProductStatus{\n        uint invoiceId;\n        string productName;\n        uint quantity;\n        uint productPrice;\n        bool IsitSeller;\n        string status; // seller accept or not \n        uint advaceAmount;\n        bool IsitFI;\n        bool IsitApproved; // FI approved or not  \n        bool advaceAmountReceived;\n        bool ProductTransfered;\n        uint Amount;\n        uint RemainingBalance;\n    }\n    \n    mapping(uint => Buyer) public buyers;\n    mapping(uint => Seller) public sellers;\n    mapping(uint => FinancialInstitution) public fis;\n    mapping(uint => Product) public products;\n    mapping(uint => ProductStatus) public productstatus;\n    address buyer;\n    address seller;\n    address Financialinstitution;\n    \n    modifier onlyBuyer() {\n        require(msg.sender == buyer);\n        _;\n    }\n    \n    modifier onlySeller() {\n        require(msg.sender == seller);\n        _;\n    }\n    \n    modifier onlyFinancialInstitution() {\n        require(msg.sender == Financialinstitution);\n        _;\n    }\n    \n    constructor(address _buyer, address _seller, address _Financialinstitution) public {\n        require( _buyer != address(0));\n        require( _seller != address(0));\n        require( _Financialinstitution != address(0));\n        buyer = _buyer;\n        seller = _seller;\n        Financialinstitution = _Financialinstitution;\n    }\n    \n    function setBuyer(uint buyerId, string memory buyerName, string memory country, address buyerAddress, uint buyerBalance) onlyBuyer public {\n        Buyer storage b = buyers[buyerId];\n        b.buyerId = buyerId;\n        b.buyerName = buyerName;\n        b.country = country;\n        b.buyerAddress = buyerAddress;\n        b.buyerBalance = buyerBalance;\n    }\n    \n    function setSeller(uint sellerId, string memory sellerName, string memory country, address sellerAddress, uint sellerBalance) onlySeller public {\n        Seller storage s = sellers[sellerId];\n        s.sellerId = sellerId;\n        s.sellerName = sellerName;\n        s.country = country;\n        s.sellerAddress = sellerAddress;\n        s.sellerBalance = sellerBalance;\n    }\n    \n    function setFinancialInstitution(uint FIId, string memory FIName, address FIAddress, uint FIBalance) onlyFinancialInstitution public{\n        FinancialInstitution storage f = fis[FIId];\n        f.FIId = FIId;\n        f.FIName = FIName;\n        f.FIAddress = FIAddress;\n        f.FIBalance = FIBalance;\n    }\n    \n    //send request by buyer\n    function sendRequestByBuyer(uint productId, string memory productName, uint quantity, uint productPrice) onlyBuyer public {\n        Product storage p = products[productId];\n        p.productId = productId;\n        p.productName = productName;\n        p.quantity = quantity;\n        p.productPrice = productPrice;\n    }\n    \n    // accepted request and share invoice by seller to buyer and FI\n    function requestAcceptedBySeller(uint invoiceId, string memory productName, uint quantity, uint productPrice, uint advaceAmount) onlySeller public  {\n        ProductStatus storage ps = productstatus[invoiceId];\n        ps.invoiceId = invoiceId;\n        ps.productName = productName;\n        ps.quantity = quantity;\n        ps.productPrice = productPrice;\n        ps.advaceAmount = advaceAmount;\n        ps.IsitSeller = true;\n        ps.status = 'Accept';\n        ps.IsitFI;\n        ps.IsitApproved;\n        \n    }\n    \n    //FI accept request\n    function requestAcceptedByFI(uint invoiceId) onlyFinancialInstitution public  {\n        ProductStatus storage ps = productstatus[invoiceId];\n        ps.invoiceId = invoiceId;\n        ps.IsitSeller = true;\n        ps.status = 'Accept';\n        ps.IsitFI = true;\n        ps.IsitApproved = true;\n    }\n    \n    // fi send advaceAmount to seller\n    function sendAdvanceAmountToSellerByFI(uint invoiceId, uint FIId, uint sellerId, uint advaceAmount) onlyFinancialInstitution payable public {\n        Seller storage s = sellers[sellerId];\n        FinancialInstitution storage f = fis[FIId];\n        ProductStatus storage ps = productstatus[invoiceId];\n        require(ps.IsitFI == true);\n        require(ps.IsitApproved == true);\n        ps.advaceAmount = advaceAmount;\n        s.sellerBalance += msg.value;\n        f.FIBalance -= msg.value;\n    }\n    \n    // seller send product to buyer\n    function productTransferedBySeller(uint invoiceId) onlySeller public {\n        ProductStatus storage ps = productstatus[invoiceId];\n        require(ps.advaceAmountReceived == true);\n        ps.ProductTransfered = true;\n    }\n    \n    // buyer send amount to fi\n    function sendAmountToFIByBuyer(uint invoiceId, uint FIId, uint buyerId, uint Amount) onlyBuyer payable public {\n        ProductStatus storage ps = productstatus[invoiceId];\n        ps.Amount = Amount;\n        require(ps.ProductTransfered == true);\n        Buyer storage b = buyers[buyerId];\n        FinancialInstitution storage f = fis[FIId];\n        f.FIBalance += msg.value;\n        b.buyerBalance -= msg.value;\n    }\n    \n    // fi send amount to seller\n    function sendRemainingAmountToSellerByFI(uint invoiceId, uint FIId, uint sellerId, uint RemainingBalance) onlyFinancialInstitution payable public {\n        ProductStatus storage ps = productstatus[invoiceId];\n        ps.RemainingBalance = RemainingBalance;\n        require(ps.ProductTransfered == true);\n        Seller storage s = sellers[sellerId];\n        FinancialInstitution storage f = fis[FIId];\n        s.sellerBalance += msg.value;\n        f.FIBalance -= msg.value;\n    }\n\n}",
  "sourcePath": "/home/lenovo/TradeFinance/contracts/TradeFinance.sol",
  "compiler": {
    "name": "solc",
    "version": "0.4.25+commit.59dbf8f1.Emscripten.clang"
  },
  "schemaVersion": "2.0.2",
  "updatedAt": "2019-05-28T07:49:34.234Z"
}